:100000000C942A000C9434000C9434000C943400AA
:100010000C9434000C9434000C9434000C94340090
:100020000C9434000C9434000C9434000C94340080
:100030000C9434000C9434000C9434000C94340070
:100040000C9434000C9434000C9434000C94340060
:100050000C94340011241FBECFE5D8E0DEBFCDBF25
:100060000E9408040C944D050C940000DF93CF937C
:1000700000D000D00F92CDB7DEB789836A834B835F
:100080008A81883008F040C18981282F30E03D8383
:100090002C838C819D818130910509F45FC02C8176
:1000A0003D81223031052CF48C819D81009771F0C7
:1000B0002BC12C813D812230310509F497C08C8100
:1000C0009D818330910509F4D9C01EC18B8188239D
:1000D00051F5A0E3B0E0E0E3F0E08285482F8A81AB
:1000E000282F30E081E090E002C0880F991F2A9508
:1000F000E2F7809584231A968C93A0E3B0E0E0E3C6
:10010000F0E08285482F8A81282F30E081E090E05E
:10011000022E02C0880F991F0A94E2F7842B1A96C8
:100120008C931A97F1C08B81813009F0EDC0A0E368
:10013000B0E0E0E3F0E08285482F8A81282F30E0AC
:1001400081E090E0022E02C0880F991F0A94E2F726
:10015000809584231A968C931A97D6C08B81882316
:1001600051F5A0E3B0E0E0E3F0E08781482F8A8119
:10017000282F30E081E090E002C0880F991F2A9577
:10018000E2F78095842317968C93A0E3B0E0E0E338
:10019000F0E08781482F8A81282F30E081E090E0CD
:1001A000022E02C0880F991F0A94E2F7842B17963B
:1001B0008C931797A9C08B81813009F0A5C0A0E36B
:1001C000B0E0E0E3F0E08781482F8A81282F30E01B
:1001D00081E090E0022E02C0880F991F0A94E2F796
:1001E0008095842317968C9317978EC08B818823D4
:1001F00051F5A0E3B0E0E0E3F0E08481482F8A818C
:10020000282F30E081E090E002C0880F991F2A95E6
:10021000E2F78095842314968C93A0E3B0E0E0E3AA
:10022000F0E08481482F8A81282F30E081E090E03F
:10023000022E02C0880F991F0A94E2F7842B1496AD
:100240008C93149761C08B81813009F05DC0A0E36D
:10025000B0E0E0E3F0E08481482F8A81282F30E08D
:1002600081E090E0022E02C0880F991F0A94E2F705
:100270008095842314968C93149746C08B81882391
:1002800051F5A0E3B0E0E0E3F0E08181482F8A81FE
:10029000282F30E081E090E002C0880F991F2A9556
:1002A000E2F78095842311968C93A0E3B0E0E0E31D
:1002B000F0E08181482F8A81282F30E081E090E0B2
:1002C000022E02C0880F991F0A94E2F7842B119620
:1002D0008C93119719C08B818130B1F4A0E3B0E009
:1002E000E0E3F0E08181482F8A81282F30E081E02F
:1002F00090E0022E02C0880F991F0A94E2F78095C1
:10030000842311968C9311970F900F900F900F905C
:100310000F90CF91DF910895DF93CF9300D000D05D
:1003200000D0CDB7DEB789836A838A81882399F5A7
:100330008981282F30E03E832D838D819E818130FD
:100340009105D1F02D813E81223031052CF48D8133
:100350009E81009761F050C02D813E812230310591
:1003600081F08D819E818330910581F045C0E0E36D
:10037000F0E08FEF828740C0E0E3F0E08FEF87830B
:100380003BC0E0E3F0E08FEF848336C0E0E3F0E0D1
:100390008FEF818331C08A81813071F58981282F67
:1003A00030E03C832B838B819C8181309105C9F0A7
:1003B0002B813C81223031052CF48B819C8100976C
:1003C00061F01AC02B813C812230310571F08B81A4
:1003D0009C818330910569F00FC0E0E3F0E0128664
:1003E0000BC0E0E3F0E0178207C0E0E3F0E0148226
:1003F00003C0E0E3F0E0118226960FB6F894DEBF6A
:100400000FBECDBFCF91DF910895DF93CF9300D082
:1004100000D00F92CDB7DEB789836A834B838B817F
:10042000883008F0F0C08981282F30E03D832C838C
:100430008C819D818130910509F44BC02C813D81D7
:10044000223031052CF48C819D81009771F0DBC046
:100450002C813D812230310509F46FC08C819D8152
:100460008330910509F49DC0CEC08B818823B1F4FF
:10047000A0E3B0E0E0E3F0E08385482F8A81282FF5
:1004800030E081E090E0022E02C0880F991F0A94AC
:10049000E2F7842B1B968C931B97B5C08B81813020
:1004A00009F0B1C0A0E3B0E0E0E3F0E08385482FBD
:1004B0008A81282F30E081E090E0022E02C0880F70
:1004C000991F0A94E2F7809584231B968C931B97BF
:1004D0009AC08B818823B1F4A0E3B0E0E0E3F0E0C0
:1004E0008085482F8A81282F30E081E090E0022E1D
:1004F00002C0880F991F0A94E2F7842B18968C93F8
:10050000189781C08B81813009F07DC0A0E3B0E0F5
:10051000E0E3F0E08085482F8A81282F30E081E0F9
:1005200090E0022E02C0880F991F0A94E2F780958E
:10053000842318968C93189766C08B818823B1F416
:10054000A0E3B0E0E0E3F0E08581482F8A81282F26
:1005500030E081E090E0022E02C0880F991F0A94DB
:10056000E2F7842B15968C9315974DC08B818130C3
:1005700009F049C0A0E3B0E0E0E3F0E08581482F56
:100580008A81282F30E081E090E0022E02C0880F9F
:10059000991F0A94E2F78095842315968C931597FA
:1005A00032C08B818823B1F4A0E3B0E0E0E3F0E057
:1005B0008281482F8A81282F30E081E090E0022E4E
:1005C00002C0880F991F0A94E2F7842B12968C932D
:1005D000129719C08B818130B1F4A0E3B0E0E0E361
:1005E000F0E08281482F8A81282F30E081E090E07E
:1005F000022E02C0880F991F0A94E2F78095842387
:1006000012968C9312970F900F900F900F900F905F
:10061000CF91DF910895DF93CF9300D000D0CDB775
:10062000DEB789836A838981282F30E03C832B835E
:100630008B819C8181309105D1F02B813C812230CE
:1006400031052CF48B819C81009761F01EC02B81B9
:100650003C812230310581F08B819C818330910572
:1006600081F013C0E0E3F0E08A8183870EC0E0E30D
:10067000F0E08A81808709C0E0E3F0E08A81858329
:1006800004C0E0E3F0E08A8182830F900F900F9026
:100690000F90CF91DF910895DF93CF9300D000D0DA
:1006A0000F92CDB7DEB78A836B838B81883008F0D9
:1006B00067C08A81282F30E03D832C834C815D8187
:1006C0004130510541F18C819D818230910534F496
:1006D0002C813D812115310561F052C04C815D8135
:1006E0004230510551F18C819D8183309105B9F1E2
:1006F00047C0E0E3F0E08185282F30E08B81882F30
:1007000090E0A90102C0559547958A95E2F7CA0184
:100710008170898335C0E0E3F0E08681282F30E0E6
:100720008B81882F90E0A90102C0559547958A9545
:10073000E2F7CA018170898323C0E0E3F0E083819E
:10074000282F30E08B81882F90E0A90102C05595B9
:1007500047958A95E2F7CA018170898311C0E0E369
:10076000F0E08081282F30E08B81882F90E0A90174
:1007700002C0559547958A95E2F7CA018170898331
:1007800089810F900F900F900F900F90CF91DF9174
:100790000895DF93CF93CDB7DEB7EBE2F0E01082A0
:1007A000E0E4F0E086E88083E9E2F0E083E3808340
:1007B000EAE2F0E088E18083CF91DF910895DF9352
:1007C000CF930F92CDB7DEB78983EBE2F0E0808163
:1007D000829586958770882F90E081709070009741
:1007E000A1F3ECE2F0E0898180830F90CF91DF915B
:1007F0000895DF93CF93CDB7DEB7EBE2F0E08081D1
:100800008823DCF7ECE2F0E08081CF91DF9108955E
:10081000DF93CF9300D00F92CDB7DEB70E94C9030C
:1008200082E060E00E948C0181E060E00E948C0127
:1008300019820E94F90389838981282F30E03B8344
:100840002A838A819B818930910509F4D0C02A814D
:100850003B812A3031050CF042C08A819B81843073
:10086000910509F4ABC02A813B8125303105F4F4B0
:100870008A819B818130910509F491C02A813B8155
:100880002230310534F48A819B81009709F47EC0BF
:10089000D0CF2A813B812230310509F485C08A817D
:1008A0009B818330910509F484C0C3CF2A813B81A9
:1008B0002630310509F48CC08A819B8186309105F0
:1008C0000CF481C02A813B812730310509F485C0B1
:1008D0008A819B818830910509F484C0AACF2A813E
:1008E0003B812233310509F4ABC08A819B8183337C
:1008F0009105FCF42A813B812431310509F485C03E
:100900008A819B81853191053CF42A813B812A3083
:10091000310509F471C08DCF8A819B818E3191059B
:1009200009F47CC02A813B812832310509F47FC05B
:1009300080CF8A819B818035910509F49CC02A81F2
:100940003B81213531056CF48A819B818C33910583
:1009500009F47FC02A813B812634310509F482C025
:1009600068CF8A819B818A35910509F48DC02A81DF
:100970003B812F3F310509F05CCF81E06FEF0E9492
:100980000B0382E06FEF0E940B0353CF81E06FE314
:100990000E940B0382E06FE30E940B034ACF81E0C9
:1009A00066E00E940B0345CF81E06BE50E940B03DC
:1009B00040CF81E06FE40E940B033BCF81E066E60D
:1009C0000E940B0336CF81E06DE60E940B0331CF0E
:1009D00081E06DE70E940B032CCF81E067E00E946D
:1009E0000B0327CF81E06FE70E940B0322CF81E04A
:1009F0006FE60E940B031DCF82E066E00E940B03AE
:100A000081E06FE30E940B0314CF82E06BE50E944C
:100A10000B0381E06FE30E940B030BCF82E06FE4D6
:100A20000E940B0381E06FE30E940B0302CF82E080
:100A300066E60E940B0381E06FE30E940B03F9CE90
:100A400082E06DE60E940B0381E06FE30E940B03DE
:100A5000F0CE82E06DE70E940B0381E06FE30E941D
:100A60000B03E7CE82E067E00E940B0381E06FE3B7
:100A70000E940B03DECE82E06FE70E940B0381E051
:100A80006FE30E940B03D5CE82E06FE60E940B035A
:0E0A900081E06FE30E940B03CCCEF894FFCF01
:00000001FF
