:100000000C942A000C943F000C943F000C943F0089
:100010000C943F000C943F000C943F000C943F0064
:100020000C943F000C943F000C943F000C943F0054
:100030000C943F000C943F000C943F000C943F0044
:100040000C943F000C943F000C943F000C943F0034
:100050000C943F0011241FBECFE5D8E0DEBFCDBF1A
:1000600014E0A0E6B0E0EEEDF7E002C005900D92DE
:10007000A834B107D9F70E9459030C94ED030C94EE
:100080000000DF93CF9300D000D00F92CDB7DEB742
:1000900089836A834B838A81883008F040C18981D3
:1000A000282F30E03D832C838C819D818130910508
:1000B00009F45FC02C813D81223031052CF48C8104
:1000C0009D81009771F02BC12C813D81223031053B
:1000D00009F497C08C819D818330910509F4D9C0C2
:1000E0001EC18B81882351F5A0E3B0E0E0E3F0E08E
:1000F0008285482F8A81282F30E081E090E002C07D
:10010000880F991F2A95E2F7809584231A968C937D
:10011000A0E3B0E0E0E3F0E08285482F8A81282F59
:1001200030E081E090E0022E02C0880F991F0A940F
:10013000E2F7842B1A968C931A97F1C08B81813049
:1001400009F0EDC0A0E3B0E0E0E3F0E08285482FE5
:100150008A81282F30E081E090E0022E02C0880FD3
:10016000991F0A94E2F7809584231A968C931A9724
:10017000D6C08B81882351F5A0E3B0E0E0E3F0E046
:100180008781482F8A81282F30E081E090E002C0EB
:10019000880F991F2A95E2F78095842317968C93F0
:1001A000A0E3B0E0E0E3F0E08781482F8A81282FC8
:1001B00030E081E090E0022E02C0880F991F0A947F
:1001C000E2F7842B17968C931797A9C08B81813007
:1001D00009F0A5C0A0E3B0E0E0E3F0E08781482F9C
:1001E0008A81282F30E081E090E0022E02C0880F43
:1001F000991F0A94E2F78095842317968C9317979A
:100200008EC08B81882351F5A0E3B0E0E0E3F0E0FD
:100210008481482F8A81282F30E081E090E002C05D
:10022000880F991F2A95E2F78095842314968C9362
:10023000A0E3B0E0E0E3F0E08481482F8A81282F3A
:1002400030E081E090E0022E02C0880F991F0A94EE
:10025000E2F7842B14968C93149761C08B818130C4
:1002600009F05DC0A0E3B0E0E0E3F0E08481482F56
:100270008A81282F30E081E090E0022E02C0880FB2
:10028000991F0A94E2F78095842314968C9314970F
:1002900046C08B81882351F5A0E3B0E0E0E3F0E0B5
:1002A0008181482F8A81282F30E081E090E002C0D0
:1002B000880F991F2A95E2F78095842311968C93D5
:1002C000A0E3B0E0E0E3F0E08181482F8A81282FAD
:1002D00030E081E090E0022E02C0880F991F0A945E
:1002E000E2F7842B11968C93119719C08B81813082
:1002F000B1F4A0E3B0E0E0E3F0E08181482F8A812F
:10030000282F30E081E090E0022E02C0880F991F74
:100310000A94E2F78095842311968C9311970F909D
:100320000F900F900F900F90CF91DF910895DF9372
:10033000CF9300D000D00F92CDB7DEB789836A8308
:100340004B838B81883008F0F0C08981282F30E002
:100350003D832C838C819D818130910509F44BC0B4
:100360002C813D81223031052CF48C819D810097B8
:1003700071F0DBC02C813D812230310509F46FC062
:100380008C819D818330910509F49DC0CEC08B8105
:100390008823B1F4A0E3B0E0E0E3F0E08385482FE8
:1003A0008A81282F30E081E090E0022E02C0880F81
:1003B000991F0A94E2F7842B1B968C931B97B5C068
:1003C0008B81813009F0B1C0A0E3B0E0E0E3F0E060
:1003D0008385482F8A81282F30E081E090E0022E2B
:1003E00002C0880F991F0A94E2F7809584231B9618
:1003F0008C931B979AC08B818823B1F4A0E3B0E063
:10040000E0E3F0E08085482F8A81282F30E081E00A
:1004100090E0022E02C0880F991F0A94E2F7842B05
:1004200018968C93189781C08B81813009F07DC01C
:10043000A0E3B0E0E0E3F0E08085482F8A81282F38
:1004400030E081E090E0022E02C0880F991F0A94EC
:10045000E2F78095842318968C93189766C08B8159
:100460008823B1F4A0E3B0E0E0E3F0E08581482F19
:100470008A81282F30E081E090E0022E02C0880FB0
:10048000991F0A94E2F7842B15968C9315974DC00B
:100490008B81813009F049C0A0E3B0E0E0E3F0E0F7
:1004A0008581482F8A81282F30E081E090E0022E5C
:1004B00002C0880F991F0A94E2F78095842315964D
:1004C0008C93159732C08B818823B1F4A0E3B0E000
:1004D000E0E3F0E08281482F8A81282F30E081E03C
:1004E00090E0022E02C0880F991F0A94E2F7842B35
:1004F00012968C93129719C08B818130B1F4A0E3CE
:10050000B0E0E0E3F0E08281482F8A81282F30E0DC
:1005100081E090E0022E02C0880F991F0A94E2F752
:100520008095842312968C9312970F900F900F90C2
:100530000F900F90CF91DF910895DF93CF9300D06C
:1005400000D00F92CDB7DEB78A836B838B81883062
:1005500008F067C08A81282F30E03D832C834C81CE
:100560005D814130510541F18C819D818230910541
:1005700034F42C813D812115310561F052C04C814C
:100580005D814230510551F18C819D81833091050F
:10059000B9F147C0E0E3F0E08185282F30E08B819E
:1005A000882F90E0A90102C0559547958A95E2F7FA
:1005B000CA018170898335C0E0E3F0E08681282F8D
:1005C00030E08B81882F90E0A90102C055954795B6
:1005D0008A95E2F7CA018170898323C0E0E3F0E0E5
:1005E0008381282F30E08B81882F90E0A90102C001
:1005F000559547958A95E2F7CA018170898311C0A4
:10060000E0E3F0E08081282F30E08B81882F90E0BC
:10061000A90102C0559547958A95E2F7CA018170F4
:10062000898389810F900F900F900F900F90CF9139
:10063000DF910895DF93CF93CDB7DEB7EBE2F0E023
:100640001082E0E4F0E084E88083E9E2F0E083E314
:100650008083EAE2F0E088E18083CF91DF91089522
:10066000DF93CF930F92CDB7DEB78983EBE2F0E053
:100670008081829586958770882F90E08170907038
:100680000097A1F3ECE2F0E0898180830F90CF9195
:10069000DF910895DF93CF93CDB7DEB7EBE2F0E0C3
:1006A00080818823DCF7ECE2F0E08081CF91DF915C
:1006B0000895DF93CF93CDB7DEB7CE5ED3400FB6AC
:1006C000F894DEBF0FBECDBF82E060E040E00E9444
:1006D00041000E941A03CE010296C651DC4F998355
:1006E0008883CA5ED340A0E6B0E0C451DC4FB98332
:1006F000A883CC5ED340BDE9C251DC4FB883CE5E47
:10070000D340C451DC4FE881F981CC5ED3400080F6
:10071000C451DC4F88819981CC5ED3400196C4518D
:10072000DC4F99838883CC5ED340C651DC4FA881CF
:10073000B981CA5ED3400C92C651DC4FE881F98181
:10074000CA5ED3403196C651DC4FF983E883CA5E56
:10075000D340C251DC4FF881CE5ED340F150C2513C
:10076000DC4FF883CE5ED340C251DC4F8881CE5E31
:10077000D340882331F6CE0181569F4F2BE433E0DE
:10078000FC01DF01C9011D920197E9F719820EC032
:100790008981282F30E0CE010296FC01E20FF31F81
:1007A00080810E94300389818F5F89838981282F0E
:1007B00030E0CE010296FC01E20FF31F8081882316
:1007C00039F780E090E0C251DC4F0FB6F894DEBFFD
:0E07D0000FBECDBFCF91DF910895F894FFCFFB
:1007DE004865726520796F752063616E2066696E5B
:1007EE0064206163746976697469657320746F201F
:1007FE00707261637469736520796F7572207265AA
:10080E006164696E6720736B696C6C732E20526520
:10081E006164696E672077696C6C2068656C702006
:10082E00796F7520746F20696D70726F766520799F
:10083E006F757220756E6465727374616E64696E25
:10084E0067206F6620746865206C616E67756167DE
:10085E006520616E64206275696C6420796F7572B3
:10086E0020766F636162756C6172792E00000000F4
:10087E00000000000000000000000000000000006A
:10088E00000000000000000000000000000000005A
:10089E00000000000000000000000000000000004A
:1008AE00000000000000000000000000000000003A
:00000001FF
